:100000006F90F03C1300000013000000130000008C
:100010001300000013000000130000001300000094
:100020001300000013000000130000001300000084
:08003000130000007300100032
:100038000000000000000000049700001497000072
:1000480000000000149B00000000000000000000F9
:10005800169B0000189B0000000000000000000034
:100068001A9B0000000000001C9B0000000000001C
:100078001E9B0000209B0000229B0000249B000088
:10008800269B0000289B0000CA8900007E8A000089
:10009800328B0000E68B00009A8C0000349B000035
:1000A800369B0000389B00003A9B00003C9B0000F8
:1000B8003E9B0000409B0000429B0000449B0000C8
:1000C800469B0000489B00004A9B00004E8D0000A4
:1000D8004E9B0000988F0000529B0000549B00002C
:1000E8005890000010910000D09100005C9B000027
:1000F8005E9B0000609B0000629B0000649B000008
:10010800669B0000D68200009A8300005E8400008F
:10011800668E0000709B0000729B0000749B0000BC
:10012800CC940000789B00007A9B00007C9B000028
:100138007E9B0000809B000090920000849B000042
:1001480026850000EA850000509300000A9400000C
:100158008E9B0000909B0000929B0000949B0000E7
:10016800969B0000989B00009A9B00009C9B0000B7
:100178009E9B0000A09B0000A29B000042BC0000C8
:10018800A69B0000A89B0000FA880000AC8600002F
:10019800708700003A880000B29B00008C95000030
:1001A800B69B0000B89B0000BA9B00004C9600006C
:1001B800BE9B0000C09B0000C29B0000C49B0000C7
:1001C800C69B0000C89B0000CA9B0000CC9B000097
:1001D8000000000000000000000000000000000017
:1001E8000000000000000000000000000000000007
:0801F8000000000000000000FF
:100200003D432A876373C3029377F700BDEFADE5E3
:10021000937606FF3D8ABA960CC34CC30CC74CC7F5
:100220004107E36BD7FE11E28280B306C3408A0622
:100230009702000096966780A6002307B700A306E2
:10024000B7002306B700A305B7002305B700A30432
:10025000B7002304B700A303B7002303B700A3022A
:10026000B7002302B700A301B7002301B700A30022
:10027000B7002300B700828093F5F50F93968500B1
:10028000D58D93960501D58D61B79396270097027A
:10029000000096968682E78086FA9680C1171D8FA9
:1002A0003E96E374C3F8A5B7011122CE00102326B1
:1002B000A4FE37F500E08328450037F500E093F809
:1002C000E8FF2322150183A841830965130505F47E
:1002D00033D5A802AA8601470325C4FEAA87014890
:1002E00037F500E03303F702B308D8029A98338356
:1002F000F60233B6F6029A85B387C8003E860CC96B
:1003000050C9B7F700E09843B7F700E0136707015B
:1003100098C3B7F700E09843B7F700E013671702F8
:1003200098C30100B7F700E0DC4313F717008547D7
:10033000E31AF7FEB7F700E09843B7F700E0799BC0
:1003400098C30100724405618280011106CE22CC5F
:100350000010AA8E2E8E32833685BA853E86C286DE
:100360004687F687A307F4FEF2872307F4FE9A87F1
:10037000A306F4FEAA872306F4FEAE87A305F4FEC7
:10038000B2872305F4FEB687A304F4FEBA872304DC
:10039000F4FE8347F4FE93068004014681453E85C2
:1003A000D12D8347E4FE93068004014681453E85B6
:1003B000D1258347D4FE93068004014681453E85BE
:1003C000552D8347C4FE93068004014681453E8532
:1003D00055258347B4FE93068004014681453E853A
:1003E000512D8347A4FE93068004014681453E8536
:1003F0005125834794FE93068004014681453E853E
:10040000952D834784FE93068004014681453E85F1
:1004100095258347440093068004014681453E8527
:10042000912D8347040093068004014681453E8553
:1004300091258347840093068004014681453E85CB
:10044000152D0100F240624405618280011106CE43
:1004500022CC00102326A4FE2324B4FEB2873687C4
:100460002313F4FEBA872312F4FE85450965EFA035
:10047000A005B70705500D472380E700B7070550D3
:100480000547A380E700B7070550035744FE2392B2
:10049000E700B7070550035764FE2393E700B7074B
:1004A00005500327C4FE98C7B7070550032784FEED
:1004B000D8C7B707055011472381E70081451305C9
:1004C0006005EF70505713056005EF701053010081
:1004D000F240624405618280797106D622D4001808
:1004E000232EA4FC231704FE231604FE0327C4FDB9
:1004F000A54763E0E70C8327C4FD13972700ED674A
:1005000093874736BA979C438287B73701409387D2
:1005100007C083D74702C207C1832317F4FE69A827
:10052000B707004083D74702C207C1832317F4FEF1
:1005300061A0B70700409387074083D74702C207EF
:10054000C1832317F4FE8DA8B71700409387078057
:1005500083D74702C207C1832317F4FEB1A8B71798
:100560000040938707C083D74702C207C183231780
:10057000F4FE99A0B73701409387074083D747021D
:10058000C207C1832317F4FE05A8B757014093871C
:1005900007C083D74702C207C1832317F4FE29A8E7
:1005A000B757014083D74702C207C1832317F4FE20
:1005B00021A0231704FE0100B707002013870704BA
:1005C0008327C4FDBA9783C7070013F7F70F930774
:1005D000F00F6317F7008357E4FE2316F4FE2DA8EF
:1005E000B7070020138707048327C4FDBA9783C782
:1005F000070093F7F70F3E852D29AA8791EB8357C4
:10060000E4FEB307F040C207C1832316F4FE29A01D
:100610008357E4FE2316F4FE8317C4FE3E85B250D2
:10062000225445618280011122CE00102326A4FEAF
:100630000327C4FEA54763E0E7088327C4FE13979A
:100640002700ED679387C738BA979C438287B737EF
:100650000140938707C023920702B9A8B70700405B
:100660002392070291A8B70700409387074023927F
:10067000070299A0B71700409387078023920702CB
:1006800025A8B7170040938707C0239207022DA023
:10069000B7370140938707402392070231A8B75725
:1006A0000140938707C02392070239A0B757014042
:1006B0002392070211A001000100724405618280AB
:1006C000397106DE22DC80002326A4FC2324B4FC3E
:1006D0002322C4FC232604FE91450325C4FCEF100D
:1006E0005064AA873E871306100DED679385C7A552
:1006F0003A85EF50F06A8327C4FC1397C70083271D
:1007000084FC7D8F8327C4FCB207B307F74093B7FF
:10071000170093F7F70F3E871306200DED679385BB
:10072000C7A53A85EF50D0678327C4FC1397C7004D
:10073000832744FC7D8F8327C4FCB207B307F740AF
:1007400093B7170093F7F70F3E871306300DED6749
:100750009385C7A53A85EF50B0640325C4FCEF101C
:10076000B062832784FC93F7F70F93068004014659
:1007700081453E850126832744FC93F7F70F9306B6
:100780008004014681453E85F524832784FC13F7C8
:10079000F70FB7070020938607048327C4FCB6979A
:1007A0002380E7000327C4FCA54763E0E70883270D
:1007B000C4FC13972700ED679387473BBA979C4388
:1007C0008287B7370140938707C02324F4FE8DA0AA
:1007D000B70700402324F4FEA1A8B7070040938781
:1007E00007402324F4FEA9A0B71700409387078091
:1007F0002324F4FE35A8B7170040938707C02324AD
:10080000F4FE3DA0B7370140938707402324F4FE50
:1008100005A0B7570140938707C02324F4FE09A819
:10082000B75701402324F4FE21A085472326F4FE78
:1008300085450545EF90B04D832784FC13D787008D
:100840008D47631AF7008545B70716001385070C17
:10085000EF90A07EE5A8832784FC13D78700C547C7
:10086000631AF7008545B707180013850710EF9046
:10087000C07CE9A8832784FC13D787009307200254
:10088000631AF7008545B7171A0013850780EF90A4
:10089000C07A6DA8832784FC13D7870093073002A2
:1008A000631AF7008545B7171A00138507C0EF9044
:1008B000C07869A8832784FC13D7870093071003A7
:1008C0006317F70085450565EF90207741A08327E2
:1008D00084FC13D7870093071007631AF700854538
:1008E000B707008013854700EF90207585A0832708
:1008F00084FC13D7870093073008631AF7008545F7
:10090000B707138013850701EF90207381A0832719
:1009100084FC13D7870093071009631AF7008545F5
:10092000B707158013850702EF90207105A0832774
:1009300084FC13D78700930730096319F7008545B6
:10094000B707158013850704EF90206F8327C4FE37
:10095000A5E3232E04FC232004FE231204FE9307A8
:10096000C4FD3E85EFA0806D231E04FCFD572310BF
:10097000F4FE231104FE231F04FC230204FE93074C
:10098000C4FDBE85032584FEEF90706693050006C6
:10099000032584FEEFA0D000BD4601468145032516
:1009A00084FEEFA050048545032584FEEFA0C06CB3
:1009B0000100F250625421618280011122CE0010A8
:1009C0002326A4FEAE87A305F4FE8347B4FE85CBA1
:1009D0008327C4FEBD8B0547B317F7009396070125
:1009E000C1828327C4FE13D75700B70700200A0728
:1009F0009387C704BA979C43368798CB3DA083273B
:100A0000C4FEBD8B0547B317F70093960701C1825B
:100A10008327C4FE13D75700B70700200A07938720
:100A2000C704BA979C433687D8CB0100724405614E
:100A30008280011122CE00102326A4FE8327C4FE4B
:100A4000958313F77700B70700200A079387C70439
:100A5000BA979C439C470327C4FE7D8B85463397FA
:100A6000E600F98FB337F00093F7F70F3E85724435
:100A700005618280797106D622D40018232EA4FC49
:100A8000232CB4FCB2872328D4FCA30BF4FC232032
:100A900004FE232204FE232404FE8327C4FD958341
:100AA00093F7F70F9D8BA307F4FE8327C4FD93F7FD
:100AB000F70FFD8B2307F4FE8347F4FE91E785458E
:100AC0001145EF90D02491A80347F4FE85476317A2
:100AD000F70085452145EF90902381A00347F4FE60
:100AE00089476317F70085454145EF90502235A0AF
:100AF0000347F4FE8D476318F70085451305000290
:100B0000EF90F02019A80347F4FE91476317F70010
:100B1000854513050004EF90901F8347E4FE0547C9
:100B2000B317F700C207C1832310F4FE032784FD27
:100B300085476317F702832704FDC207C183A1839A
:100B4000C207C18389E78D472322F4FE11A88327BA
:100B500004FDC207C183A183C207C1832322F4FE1F
:100B6000832704FDC207C18393F7F70F2324F4FE04
:100B70000347F4FEB70700200A079387C704BA9714
:100B80009C43130704FEBA853E85EF90E0240327BB
:100B900084FD85476319F7020347F4FEB707002079
:100BA0000A079387C704BA9794438347E4FE05472F
:100BB000B317F700C207C183034774FD3A86BE85A9
:100BC0003685EF9000440100B25022544561828086
:100BD0001D7186CEA2CC80102326A4FA2324B4FA59
:100BE000B287A303F4FA85450325C4FAEF10701306
:100BF000AA873E871306D006ED67938547AD3A85F1
:100C0000EF50101A832784FAB337F00093F7F70FE9
:100C10003E871306F006ED67938547AD3A85EF50A2
:100C20003018832784FABD832315F4FE8357A4FE6E
:100C300085073E87832784FAB3D7E7022314F4FE9F
:100C40000325C4FAEF105014B7370140938707C04B
:100C50002326F4FE0327C4FAA54763ECE70883279D
:100C6000C4FA13972700ED679387C73DBA979C4353
:100C70008287B7370140938707C02326F4FE95A8E3
:100C8000B70700402326F4FEADA0B70700409387C6
:100C900007402326F4FEB1A8B717004093870780CA
:100CA0002326F4FEB9A0B7170040938707C0232678
:100CB000F4FE81A0B71700402326F4FE1DA8B71745
:100CC0000040938707402326F4FE25A0B737014054
:100CD000938707402326F4FE29A8B757014093873E
:100CE00007C02326F4FE31A0B75701402326F4FEA7
:100CF0000100232E04FC232004FE231204FE83574C
:100D000084FE2310F4FE8357A4FE231EF4FC23115B
:100D100004FE231F04FC230204FE9307C4FDBE85CA
:100D20000325C4FEEF90B02C054685450325C4FE7F
:100D3000EFA0004085450325C4FEEFA07007ED67D6
:100D400003AEC7AA1387C7AA032347001387C7AAFE
:100D5000832887001387C7AA0328C7001387C7AA59
:100D6000084B1387C7AA4C4B1387C7AA104F13878A
:100D7000C7AA544F1387C7AA18539387C7AADC532F
:100D8000232AC4FB232C64FA232E14FB232004FD06
:100D90002322A4FC2324B4FC2326C4FC2328D4FC53
:100DA000232AE4FC232CF4FC8327C4FA93F7F70FDF
:100DB0008A07130704FFBA9783A747FC034774FA0F
:100DC000BA853E85EF7020478327C4FA8A07130748
:100DD00004FFBA9783A747FC3E85EF700042854524
:100DE0000325C4FEEFA040290100F64066442561BA
:100DF0008280797106D622D40018232EA4FC232CDD
:100E0000B4FC032784FD896793871771B337F70014
:100E100093F7F70F3E8713065003ED67938507B2EC
:100E20003A85EF50E077B7370140938707C0232614
:100E3000F4FE8327C4FDC183BD8B2547636EF7068F
:100E400013972700ED6793874740BA979C438287A3
:100E5000B7370140938707C02326F4FEB1A8B70730
:100E600000402326F4FE89A8B70700409387074077
:100E70002326F4FE91A0B71700409387078023260E
:100E8000F4FE1DA8B7170040938707C02326F4FE81
:100E900025A0B7370140938707402326F4FE29A8F1
:100EA000B7570140938707C02326F4FE31A0B757F8
:100EB00001402326F4FE01008327C4FE83D7C70226
:100EC0002315F4FE0357A4FE832784FD3307F7029E
:100ED000896793870771B357F7022314F4FE8327BA
:100EE000C4FDA1838D8B81EB8327C4FE035784FE51
:100EF000239AE702A9A88327C4FDA18313F737002B
:100F000085476319F7008327C4FE035784FE239C9B
:100F1000E70235A88327C4FDA18313F7370089476B
:100F20006319F7008327C4FE035784FE239EE7025C
:100F300039A88327C4FDA18313F737008D476318B1
:100F4000F7008327C4FE035784FE2390E7040100C3
:100F5000B2502254456182805D7186C6A2C4800869
:100F6000232EA4FA232CB4FA232AC4FA8327C4FB21
:100F7000C1838D453E85EF10C05AAA873E87130670
:100F8000D00AED67938507B23A85EF506061032779
:100F900044FB896793871771B337F70093F7F70F0F
:100FA0003E871306F00AED67938507B23A85EF5046
:100FB000205F232E04FC232004FE231204FE23269C
:100FC00004FC232804FC232A04FC232C04FC231502
:100FD00004FE8327C4FBC183BD8B3E85EF10C05A3E
:100FE0008327C4FB93F7F70F9306803101468545AD
:100FF0003E85493485450545EF906051B73701403E
:10100000938707C02326F4FE8327C4FBC183BD8BCF
:101010002547636EF70613972700ED679387C7424E
:10102000BA979C438287B7370140938707C023262E
:10103000F4FEB1A8B70700402326F4FE89A8B7073D
:101040000040938707402326F4FE91A0B717004085
:10105000938707802326F4FE1DA8B71700409387C7
:1010600007C02326F4FE25A0B73701409387074029
:101070002326F4FE29A8B7570140938707C02326EB
:10108000F4FE31A0B75701402326F4FE0100832768
:10109000C4FB13D7C7008D47631AF7008545B70710
:1010A00016001385070CEF80507915AA8327C4FB1F
:1010B00013D7C700C547631AF7008545B70718005F
:1010C00013850710EF80707719AA8327C4FB13D705
:1010D000C700C947631AF7008545B707180013858D
:1010E0000720EF809075E5A88327C4FB13D7C700BE
:1010F000CD47631AF7008545B707180013850730F9
:10110000EF80B073E9A88327C4FB13D7C700930708
:101110002002631AF7008545B7171A001385078068
:10112000EF80B0716DA88327C4FB13D7C700930766
:101130003002631AF7008545B7171A00138507C0F8
:10114000EF80B06F69A88327C4FB13D7C70093074C
:1011500010036317F70085450565EF80106E41A009
:101160008327C4FB13D7C70093071007631AF70040
:101170008545B707008013854700EF80106C85A078
:101180008327C4FB13D7C70093073008631AF700FF
:101190008545B707138013850701EF80106A81A08A
:1011A0008327C4FB13D7C70093071009631AF700FE
:1011B0008545B707158013850702EF80106805A0E5
:1011C0008327C4FB13D7C700930730096319F700BF
:1011D0008545B707158013850704EF80106603A7C0
:1011E0004183832784FBB357F702C1832315F4FEA1
:1011F00003A741838357A4FE8507BE86832784FB0C
:10120000B387F602B357F7022314F4FE035784FEA4
:10121000832744FB3307F702896793870771B35726
:10122000F7022313F4FE835784FEFD17C207C18320
:101230002310F4FE8357A4FE231EF4FC231104FEA6
:10124000231F04FC230204FE9307C4FDBE8503256F
:10125000C4FEEF90C059930700072316F4FC85479E
:101260002317F4FC231804FC835764FE2319F4FCB1
:101270008947231AF4FC8947231BF4FC231C04FC34
:10128000231D04FC8327C4FBA1838D8B9DE393075F
:10129000C4FCBE850325C4FEEF90406DA145032527
:1012A000C4FEEFA0E00091450325C4FEEFA00015A9
:1012B00045A08327C4FBA18313F737008547631537
:1012C000F7029307C4FCBE850325C4FEEF90D0034C
:1012D000A1450325C4FEEFA060029305004003254D
:1012E000C4FEEFA06016ADA08327C4FBA18313F753
:1012F000370089476314F7029307C4FCBE850325B2
:10130000C4FEEF90901EA1450325C4FEEFA0A004EB
:1013100091450325C4FEEFA080181DA88327C4FBB8
:10132000A18313F737008D476314F7029307C4FCBA
:10133000BE850325C4FEEF901039A1450325C4FEE8
:10134000EFA02006930500400325C4FEEFA0E0199E
:1013500085450325C4FEEF90B05785450325C4FE9F
:10136000EF9090510100B64026446161828079710E
:1013700006D622D40018232EA4FC8327C4FDB3373D
:10138000F00093F7F70F3E8713061004ED6793857F
:10139000C7B63A85EF50C0208327C4FD9C43BD8B60
:1013A0000547B317F70093960701C1828327C4FD51
:1013B0009C4313D75700B70700200A079387C70439
:1013C000BA979C43368798CB8327C4FDDC43BD8BFB
:1013D0000547B317F70093960701C1828327C4FD21
:1013E000DC4313D75700B70700200A079387C704C9
:1013F000BA979C43368798CB8327C4FDDC472326C6
:10140000F4FE01008327C4FE1387F7FF2326E4FEC2
:10141000F5FB8327C4FDDC43BD8B0547B317F700FD
:1014200093960701C1828327C4FDDC4313D757007D
:10143000B70700200A079387C704BA979C433687EB
:10144000D8CB8327C4FDDC472324F4FE0100832787
:1014500084FE1387F7FF2324E4FEF5FB8327C4FDF6
:101460009C43BD8B0547B317F70093960701C182D4
:101470008327C4FD9C4313D75700B70700200A07F2
:101480009387C704BA979C433687D8CB0100B250E4
:10149000225445618280797106D622D40018232E09
:1014A000A4FC8327C4FDB337F00093F7F70F3E8702
:1014B00013064005ED679385C7B63A85EF50400E99
:1014C0008327C4FDDC43BD8B0547B317F700939614
:1014D0000701C1828327C4FDDC4313D75700B70738
:1014E00000200A079387C704BA979C433687D8CB56
:1014F0008327C4FD9C43BD8B0547B317F700939624
:101500000701C1828327C4FD9C4313D75700B70747
:1015100000200A079387C704BA979C433687D8CB25
:101520008327C4FDDC472326F4FE01008327C4FE85
:101530001387F7FF2326E4FEF5FB8327C4FD9C43B6
:10154000BD8B0547B317F70093960701C182832728
:10155000C4FD9C4313D75700B70700200A079387A1
:10156000C704BA979C43368798CB8327C4FDDC47D2
:101570002324F4FE0100832784FE1387F7FF23242E
:10158000E4FEF5FB8327C4FDDC43BD8B0547B317A1
:10159000F70093960701C1828327C4FDDC4313D76C
:1015A0005700B70700200A079387C704BA979C43E0
:1015B000368798CB8327C4FDDC472322F4FE010045
:1015C000832744FE1387F7FF2322E4FEF5FB010087
:1015D000B250225445618280797106D622D4001817
:1015E000232EA4FCAE87A30DF4FC8327C4FDB337E0
:1015F000F00093F7F70F3E8713069006ED6793858B
:10160000C7B63A85EF40D0798327C4FD9C43BD8B94
:101610000547B317F70093960701C1828327C4FDDE
:101620009C4313D75700B70700200A079387C704C6
:10163000BA979C433687D8CB8347B4FD95CB832795
:10164000C4FDDC43BD8B0547B317F7009396070134
:10165000C1828327C4FDDC4313D75700B70700209E
:101660000A079387C704BA979C43368798CB0DA87F
:101670008327C4FDDC43BD8B0547B317F700939662
:101680000701C1828327C4FDDC4313D75700B70786
:1016900000200A079387C704BA979C433687D8CBA4
:1016A0008327C4FDDC472326F4FE01008327C4FE04
:1016B0001387F7FF2326E4FEF5FB8327C4FD9C4335
:1016C000BD8B0547B317F70093960701C1828327A7
:1016D000C4FD9C4313D75700B70700200A07938720
:1016E000C704BA979C43368798CB8327C4FDDC4751
:1016F0002324F4FE0100832784FE1387F7FF2324AD
:10170000E4FEF5FB8327C4FD9C43BD8B0547B3175F
:10171000F70093960701C1828327C4FD9C4313D72A
:101720005700B70700200A079387C704BA979C435E
:101730003687D8CB8327C4FDDC43BD8B0547B31761
:10174000F70093960701C1828327C4FDDC4313D7BA
:101750005700B70700200A079387C704BA979C432E
:10176000368798CB0100B25022544561828079714E
:1017700006D622D40018232EA4FC8327C4FDB33739
:10178000F00093F7F70F3E8713065008ED67938537
:10179000C7B63A85EF40D060A30704FE8327C4FD97
:1017A0009C43BD8B0547B317F70093960701C18291
:1017B0008327C4FD9C4313D75700B70700200A07AF
:1017C0009387C704BA979C433687D8CB8327C4FD39
:1017D000DC43BD8B0547B317F70093960701C18221
:1017E0008327C4FDDC4313D75700B70700200A073F
:1017F0009387C704BA979C43368798CB8327C4FD49
:10180000DC472324F4FE0100832784FE1387F7FFBF
:101810002324E4FEF5FB8327C4FD9C43BD8B0547D1
:10182000B317F70093960701C1828327C4FD9C4339
:1018300013D75700B70700200A079387C704BA9742
:101840009C43368798CB8327C4FDDC472322F4FED4
:101850000100832744FE1387F7FF2322E4FEF5FBF4
:101860008327C4FDDC433E85EFF0AF9CAA8781C788
:101870008547A307F4FE8327C4FD9C43BD8B054722
:10188000B317F70093960701C1828327C4FD9C43D9
:1018900013D75700B70700200A079387C704BA97E2
:1018A0009C433687D8CB8327C4FDDC472320F4FE36
:1018B0000100832704FE1387F7FF2320E4FEF5FBD6
:1018C0008347F4FE3E85B25022544561828079718F
:1018D00006D622D40018232EA4FCAE87A30DF4FC58
:1018E0008327C4FDB337F00093F7F70F3E87130645
:1018F000700AED679385C7B63A85EF40704A930743
:1019000000F8A307F4FE09AA0347B4FD8347F4FED9
:10191000F98F93F7F70F95CB8327C4FDDC43BD8B7D
:101920000547B317F70093960701C1828327C4FDCB
:10193000DC4313D75700B70700200A079387C70473
:10194000BA979C43368798CB0DA88327C4FDDC4308
:10195000BD8B0547B317F70093960701C182832714
:10196000C4FDDC4313D75700B70700200A0793874D
:10197000C704BA979C433687D8CB8347F4FE858348
:10198000A307F4FE8327C4FDDC472324F4FE0100F3
:10199000832784FE1387F7FF2324E4FEF5FB8327C8
:1019A000C4FD9C43BD8B0547B317F7009396070111
:1019B000C1828327C4FD9C4313D75700B70700207B
:1019C0000A079387C704BA979C43368798CB832727
:1019D000C4FDDC472322F4FE0100832744FE138765
:1019E000F7FF2322E4FEF5FB8327C4FD9C43BD8B58
:1019F0000547B317F70093960701C1828327C4FDFB
:101A00009C4313D75700B70700200A079387C704E2
:101A1000BA979C433687D8CB8347F4FEE39607EE0C
:101A20000325C4FDA933AA87FD17B337F00093F748
:101A3000F70F3E85B250225445618280397106DE2F
:101A400022DC26DA80002326A4FCAE87A305F4FC62
:101A50008327C4FCB337F00093F7F70F3E871306D4
:101A6000000CED679385C7B63A85EF407033A30746
:101A700004FEA1472307F4FE8327C4FC9C43BD8BCF
:101A80000547B317F70093960701C1828327C4FC6B
:101A90009C4313D75700B70700200A079387C70452
:101AA000BA979C433687D8CB8327C4FCDC472324D2
:101AB000F4FE0100832784FE1387F7FF2324E4FE4E
:101AC000F5FB8327C4FCDC43BD8B0547B317F70048
:101AD00093960701C1828327C4FCDC4313D75700C8
:101AE000B70700200A079387C704BA979C43368735
:101AF00098CB7DA88327C4FC9C43BD8B0547B317B7
:101B0000F70093960701C1828327C4FC9C4313D737
:101B10005700B70700200A079387C704BA979C436A
:101B20003687D8CB8327C4FCDC472322F4FE010090
:101B3000832744FE1387F7FF2322E4FEF5FB832768
:101B4000C4FC9C43BD8B0547B317F7009396070170
:101B5000C1828327C4FC9C4313D75700B7070020DA
:101B60000A079387C704BA979C43368798CB832785
:101B7000C4FCDC472320F4FE0100832704FE138706
:101B8000F7FF2320E4FEF5FB8347F4FE86079394DA
:101B90008701E1848327C4FCDC433E85EFE07FE9D5
:101BA000AA87E207E187C58FE207E187A307F4FE72
:101BB0008347E4FE1387F7FF2307E4FE85FF8327AF
:101BC000C4FC9C43BD8B0547B317F70093960701F0
:101BD000C1828327C4FC9C4313D75700B70700205A
:101BE0000A079387C704BA979C433687D8CB8327C5
:101BF000C4FCDC47232EF4FC01008327C4FD1387BB
:101C0000F7FF232EE4FCF5FB8347B4FCBE850325D8
:101C1000C4FCEFF07F9C8347F4FE3E85F250625493
:101C2000D25421618280011106CE22CC00102326DD
:101C3000A4FEAE873287A305F4FEBA872305F4FE1F
:101C40008327C4FEB337F00093F7F70F3E871306E0
:101C50002029ED679385C7B63A85EF4070140325B8
:101C6000C4FEEFF0CFF08327C4FE83C7870086074A
:101C700093F7F70FBE850325C4FE91398347B4FE61
:101C8000BE850325C4FEA1318347A4FEBE8503257E
:101C9000C4FE35390325C4FEEFF0EFFF0100F2402A
:101CA000624405618280797106D622D40018232E01
:101CB000A4FCAE87A30DF4FC8327C4FDB337F0006A
:101CC00093F7F70F3E871306402AED679385C7B653
:101CD0003A85EF40F00CA30704FE0325C4FDEFF0A6
:101CE0000FE98327C4FD83C78700860793F7F70FA3
:101CF000BE850325C4FDE13E8347B4FDBE850325B3
:101D0000C4FDF1360325C4FDEFF0EFF80325C4FD53
:101D1000EFF0EFE58327C4FD83C787008607E2075E
:101D2000E18793E71700E207E18793F7F70FBE8596
:101D30000325C4FD693E85450325C4FD0133AA87FB
:101D4000A307F4FE0325C4FDEFF0EFF48347F4FE90
:101D50003E85B250225445618280797106D622D4E4
:101D600000182326A4FEAE872322C4FE2320D4FE1F
:101D7000232EE4FCA305F4FE8327C4FEB337F00052
:101D800093F7F70F3E871306F02BED679385C7B6E1
:101D90003A85EF40F000032704FE8327C4FDB30714
:101DA000F740B337F00093F7F70F3E871306002C88
:101DB000ED679385C7B63A85EF40807E8327C4FEE2
:101DC000032704FE98C38327C4FE0327C4FDD8C39A
:101DD0008327C4FE0347B4FE2384E7008327C4FEA1
:101DE000032744FED8C7C14605468545032504FEA2
:101DF000EFE05FC8D146054685450325C4FDEFE009
:101E00007FC70100B250225445618280011122CE69
:101E100000102326A4FEAE87A305F4FEED6703277A
:101E2000C4FE0A0793874745BA979C433E8783477A
:101E3000B4FEC207C1832316F7000100ED67032734
:101E4000C4FE0A0793874745BA979C4383D7870008
:101E5000C207C18393F70708F5F3010072440561D7
:101E60008280011122CE00102326A4FEAE87231506
:101E7000F4FE8357A4FEA183C207C18393F6F70F34
:101E8000ED670327C4FE0A0793874745BA979C432B
:101E90003E8793970601C1832316F7000100ED6783
:101EA0000327C4FE0A0793874745BA979C4383D705
:101EB0008700C207C183898BFDD38357A4FE93F6A5
:101EC000F70FED670327C4FE0A0793874745BA97C4
:101ED0009C433E8793970601C1832316F7000100B8
:101EE000ED670327C4FE0A0793874745BA979C43CB
:101EF00083D78700C207C18393F70708F5F3010072
:101F0000724405618280011122CE00102326A4FEB6
:101F10002324B4FE2322C4FE71A8832784FE83D722
:101F20000700A183C207C18393F6F70FED6703276C
:101F3000C4FE0A0793874745BA979C433E87939709
:101F40000601C1832316F7000100ED670327C4FED5
:101F50000A0793874745BA979C4383D78700C207F0
:101F6000C183898BFDD3832784FE13872700232415
:101F7000E4FE83D7070093F6F70FED670327C4FE4F
:101F80000A0793874745BA979C433E879397060174
:101F9000C1832316F7000100ED670327C4FE0A077B
:101FA00093874745BA979C4383D78700C207C1836D
:101FB000898BFDD3832744FE1387F7FF2322E4FE9A
:101FC000A9FF0100ED670327C4FE0A079387474571
:101FD000BA979C4383D78700C207C18393F707084A
:101FE000F5F30100724405618280011122CE0010D8
:101FF0002326A4FEAE873287A305F4FEBA87230505
:10200000F4FEED670327C4FE0A0793874745BA9796
:102010009C433E878347B4FEC207C1832316F70063
:102020000100ED670327C4FE0A0793874745BA9767
:102030009C4383D78700C207C183898BFDD3ED679B
:102040000327C4FE0A0793874745BA979C433E87F8
:102050008347A4FEC207C1832316F7000100ED6782
:102060000327C4FE0A0793874745BA979C4383D743
:102070008700C207C18393F70708F5F30100724494
:1020800005618280797122D60018232EA4FCAE87C8
:10209000A30DF4FCED670327C4FD0A0793874745AA
:1020A000BA979C4383D7C700ED670327C4FD0A078F
:1020B00093874745BA979C433E878347B4FDC20741
:1020C000C1832316F7000100ED670327C4FD0A074B
:1020D00093874745BA979C4383D78700C207C1833C
:1020E00093F70708F5F3ED670327C4FD0A07938705
:1020F0004745BA979C4383D7C700ED670327C4FDC4
:102100000A0793874745BA979C4323960700010027
:10211000ED670327C4FD0A0793874745BA979C4399
:1021200083D78700C207C18393F70708F5F3ED67EC
:102130000327C4FD0A0793874745BA979C4383D773
:10214000C700C207C183A307F4FE8347F4FE3E85A0
:10215000325445618280011122CE00102326A4FE54
:10216000AE872322C4FE2320D4FEA305F4FEED6730
:102170000327C4FE0A0793874745BA979C4383D732
:10218000C700ED670327C4FE0A0793874745BA9740
:102190009C433E878347B4FEC207C1832316F700E2
:1021A0000100ED670327C4FE0A0793874745BA97E6
:1021B0009C4383D78700C207C18393F70708F5F3D1
:1021C000ED670327C4FE0A0793874745BA979C43E8
:1021D00083D7C70095A0ED670327C4FE0A0793873E
:1021E0004745BA979C43239607000100ED670327F4
:1021F000C4FE0A0793874745BA979C4383D7870055
:10220000C207C18393F70708F5F3ED670327C4FE00
:102210000A0793874745BA979C4383D7C70093968D
:102220000701C182832744FE138717002322E4FE9F
:1022300013F7F60F2380E700832704FE1387F7FFC9
:102240002320E4FEC9FB01007244056182805D71B8
:1022500086C6A2C480082326A4FC2324B4FC23221F
:10226000C4FC2320D4FC232EE4FA232CF4FA232AE2
:1022700004FBED670327C4FC0A0793874745BA9719
:102280009C433E85EF80203A85450545EF80202818
:10229000032704FC93073012631DF7000327C4FBD8
:1022A000930750126317F70085450545EF70F05806
:1022B00025A0032704FC89679387A714631EF700F2
:1022C0000327C4FB89679387C7146317F700854505
:1022D00037152000EF7070568327C4FC91E78545C1
:1022E0000565EF80C02225A00327C4FC854763173E
:1022F000F70085451165EF80E02511A80327C4FC90
:1023000089476316F70085452165EF80A024832760
:1023100004FC93F7F70F93068031054685453E850B
:10232000EFE04FF58327C4FB93F7F70F9306803157
:10233000054685453E85EFE0EFF3032784FBC16743
:10234000F917630DF700832784FB93F7F70F9306C4
:102350008034054681453E85EFE0CFF1032744FBFD
:102360009307F00F630DF700832744FB93F7F70FF4
:1023700093060031014685453E85EFE0AFEF232E01
:1023800004FC232004FE232204FE232404FE23163F
:1023900004FE231E04FC93074010231FF4FC2310AB
:1023A00004FE032784FC85476305F702832784FC2A
:1023B00081CF032784FC89476303F702032784FC4A
:1023C0008D476304F7020DA8231104FE231204FEB7
:1023D00025A0231104FE85472312F4FE31A8894766
:1023E0002311F4FE231204FE01A889472311F4FEF1
:1023F00085472312F4FE0100231704FE03A741833F
:10240000832744FCB357F7022317F4FE03A7418345
:10241000832744FCB377F70291E78357E4FEFD1767
:102420002317F4FE0357E4FE9307F00763F7E70072
:10243000930780032317F4FE49A80357E4FE93078C
:10244000F00363F7E700930700032317F4FEB5A832
:102450000357E4FEFD4763F7E70093078002231765
:10246000F4FEA5A00357E4FEBD4763F7E70093071A
:1024700000022317F4FE91A80357E4FE9D4763F67C
:10248000E700E1472317F4FE89A00357E4FE8D47D8
:1024900063F6E700C1472317F4FE05A80357E4FEDF
:1024A000854763F6E700A1472317F4FE39A8835751
:1024B000E4FE81C7231704FE09A813068022ED67F6
:1024C0009385C7BB0145EF40A00D8357E4FE23145D
:1024D000F4FE930700202313F4FE231504FE2316B5
:1024E00004FEED670327C4FC0A0793874745BA97A4
:1024F0009C433E879307C4FDBE853A85EF80001A52
:10250000ED670327C4FC0A0793874745BA979C43A6
:1025100085453E85EF8000280100B6402644616174
:102520008280797122D60018232EA4FC232CB4FCBF
:102530008547A307F4FE0327C4FD0A079387819705
:10254000BA979C4399EB0327C4FD0A0793878197A9
:10255000BA97032784FD98C315A00327C4FD0A0773
:1025600093878197BA979C43032784FD6316F700EE
:102570008547A307F4FE19A0A30704FE8347F4FED2
:102580003E85325445618280011106CE22CC001076
:102590002326A4FE8327C4FE81EB8545856713852A
:1025A0000780EF70D0766DA80327C4FE85476317B8
:1025B000F70085450545EF70F0795DA00327C4FE5F
:1025C00089476317F70085450945EF70B07849A83A
:1025D0000327C4FE8D476317F70085451145EF704B
:1025E0007077BDA80327C4FE91476317F7008545A0
:1025F0002145EF703076ADA00327C4FE95476317E1
:10260000F70085454145EF70F07499A80327C4FE93
:1026100099476318F700854513050002EF70907322
:1026200081A00327C4FE9D476317F7008545096510
:10263000EF70F06D35A00327C4FEA1476318F700C3
:10264000854537050800EF70906C19A80327C4FE74
:10265000A5476317F700854537051000EF70306B0D
:102660000100F240624405618280797122D600182F
:10267000232EA4FCB7370140938707C02326F4FE1E
:10268000231504FE0327C4FDA54763ECE708832751
:10269000C4FD13972700ED6793870746BA979C43BD
:1026A0008287B7370140938707C02326F4FE95A899
:1026B000B70700402326F4FEADA0B707004093877C
:1026C00007402326F4FEB1A8B71700409387078080
:1026D0002326F4FEB9A0B7170040938707C023262E
:1026E000F4FE81A0B71700402326F4FE1DA8B717FB
:1026F0000040938707402326F4FE25A0B73701400A
:10270000938707402326F4FE29A8B75701409387F3
:1027100007C02326F4FE31A0B75701402326F4FE5C
:1027200001000327C4FD0A079387019ABA979843CB
:102730008947631FF7008327C4FE83D74702139797
:10274000070141838D47B357F7022315F4FE39A0E3
:102750008327C4FE83D747022315F4FE8357A4FEC4
:102760003E85325445618280797122D60018232E2D
:10277000A4FCB7370140938707C02326F4FE032744
:10278000C4FDA54763ECE7088327C4FD1397270022
:10279000ED6793878748BA979C438287B737014094
:1027A000938707C02326F4FE95A8B7070040232689
:1027B000F4FEADA0B7070040938707402326F4FE40
:1027C000B1A8B7170040938707802326F4FEB9A06D
:1027D000B7170040938707C02326F4FE81A0B717E0
:1027E00000402326F4FE1DA8B7170040938707403A
:1027F0002326F4FE25A0B737014093870740232600
:10280000F4FE29A8B7570140938707C02326F4FE9A
:1028100031A0B75701402326F4FE01008327C4FEF0
:10282000239207020100325445618280011122CEB9
:1028300000102326A4FEAE87A305F4FE0100ED6779
:102840000327C4FE0A079387074BBA979C4383D795
:102850000700C207C18393F70708F5D3ED67032785
:10286000C4FE0A079387074BBA979C433E8783476A
:10287000B4FEC207C1832312F70001007244056150
:102880008280011106CE22CC00102326A4FE232430
:10289000B4FE2322C4FE832784FEB337F00093F7EF
:1028A000F70F3E8713061004ED67938587C03A85BE
:1028B000EF30104F29A8832784FE138717002324A5
:1028C000E4FE83C70700BE850325C4FE8537832742
:1028D00044FE1387F7FF2322E4FEF1FF0100F240DC
:1028E000624405618280011106CE22CC00102326AD
:1028F000A4FE2324B4FE832784FEB337F00093F7AD
:10290000F70F3E8713060005ED67938587C03A856C
:10291000EF30104939A8832784FE1387170023243A
:10292000E4FE8387070093F7F70FBE850325C4FEF7
:10293000F53D832784FE83870700F1FF0100F24005
:10294000624405618280011106CE22CC001023264C
:10295000A4FEAE87A305F4FEED670327C4FE0A07B5
:102960009387074BBA979C433E878347B4FE3E86C6
:10297000930550523A85EF80D06F1387818B832760
:10298000C4FEBA9783C7070081453E85EF50B00A61
:102990008347B4FE81CF1387818B8327C4FEBA9708
:1029A00083C707003E85EF50500519A81387818B18
:1029B0008327C4FEBA9783C707003E85EF50D00532
:1029C0000100F240624405618280011122CE0010B4
:1029D0002326A4FE2324B4FEED670327C4FE0A07C2
:1029E0009387074BBA979C4383D70700C207C183DD
:1029F00093F707028DC7ED670327C4FE0A07938785
:102A0000074BBA979C4383D74700C207C18313F78C
:102A1000F70F832784FE2380E700854711A08147B5
:102A20003E85724405618280797106D622D40018F1
:102A3000232EA4FC232CB4FC232AC4FC2328D4FC7E
:102A4000032744FD832704FD3D8F8327C4FDB20780
:102A5000F98F93B7170093F7F70F3E871306A00A75
:102A6000ED67938587C03A85EF309033832744FD27
:102A700013D78700832704FDA183B307F74093B7DB
:102A8000170093F7F70F3E871306B00AED6793859B
:102A900087C03A85EF30D030832744FD93F7F70F96
:102AA000E146014685453E85EFD0DFFC832704FDE6
:102AB00093F7F70F93068004014681453E85EFD0DA
:102AC0007FFB85450545EF709024032744FDC167D2
:102AD000FD17F98F0D67130707386387E7200D6728
:102AE000130707386369F7040567130757166381EF
:102AF000E716056713075716636FF7001307F022F1
:102B0000638AE70C130760306381E71013076012D4
:102B10006388E70865A6096713078736638BE7169E
:102B20000D67130707126387E71809671307A714D0
:102B30006380E71461A615671307A738638EE7263D
:102B400015671307A7386362F70211671307873801
:102B50006380E7201567130787126385E7221167F3
:102B600013074712638CE71A91AE19671307C7382A
:102B70006388E72A19671307C7386368F70019677E
:102B8000130767106384E72615AE1D671307E71068
:102B90006382E72C1D671307E7386387E72E39AE9A
:102BA000B7070140D44FB7070140370700FC7D1736
:102BB000758FD8CFB7070140D843B70701406D9B49
:102BC000D8C3B7070140D843B70701401367470090
:102BD000D8C3EDA4B7070140D44FB707014037076A
:102BE00000FC7D17758FD8CFB7070140D44FB707CA
:102BF000014037070004558FD8CFB7070140D843AD
:102C0000B70701406D9BD8C355ACB7070140D44FFF
:102C1000B7070140370700FC7D17758FD8CFB7077E
:102C20000140D44FB707014037070004558FD8CF74
:102C3000B7070140D843B70701406D9BD8C3B7071A
:102C40000140D843B707014013674700D8C3BDA46C
:102C5000B7070140D843B70701405D9BD8C3B7070A
:102C60000140D843B707014013678700D8C3B9A410
:102C7000B7070140D843B70701401377F7FCD8C323
:102C8000B7070140D843B707014013670701D8C30E
:102C900035A4B7070140D843B70701401377F7FCC5
:102CA000D8C3B7070140D843B707014013670703EC
:102CB000D8C329A4B7070140D44FB707014037074D
:102CC000FDFF7D17758FD8CFB7070140D44F8327FD
:102CD00044FDA18313970701B70703007D8FB70752
:102CE0000140558FD8CFD9AAB7070140D44FB707B5
:102CF00001403707FDFF7D17758FD8CFB70701401B
:102D0000D44F832744FDA18313970701B70703001E
:102D10007D8FB7070140558FD8CF4DA2B70701402F
:102D2000D44FB70701403707F4FF7D17758FD8CF11
:102D3000B7070140D44F832744FDA1831397270190
:102D4000B7070C007D8FB7070140558FD8CFBDA2C4
:102D5000B7070140D44FB70701403707F4FF7D178D
:102D6000758FD8CFB7070140D44F832744FDA18387
:102D700013972701B7070C007D8FB7070140558FC8
:102D8000D8CF2DAAB7070140D44FB7070140370766
:102D9000D0FF7D17758FD8CFB7070140D44F832759
:102DA00044FDA18313974701B70730007D8FB70714
:102DB0000140558FD8CF19A2B7070140D44FB707AC
:102DC00001403707D0FF7D17758FD8CFB707014077
:102DD000D44F832744FDA18313974701B7073000E1
:102DE0007D8FB7070140558FD8CFC9A8B7070140DD
:102DF000D44FB7070140370740FF7D17758FD8CFF5
:102E0000B7070140D44F832744FDA183139767017F
:102E1000B707C0007D8FB7070140558FD8CF79A87D
:102E2000B7070140D44FB7070140370740FF7D1770
:102E3000758FD8CFB7070140D44F832744FDA183B6
:102E400013976701B707C0007D8FB7070140558F03
:102E5000D8CFADA0B7070140D44FB707014037071F
:102E600000FD7D17758FD8CFB7070140D44F83275A
:102E700044FDA18313978701B70700037D8FB70730
:102E80000140558FD8CF1DA8B7070140D44FB707D1
:102E90000140370700FD7D17758FD8CFB707014078
:102EA000D44F832744FDA18313978701B7070003FD
:102EB0007D8FB7070140558FD8CF01008327C4FD10
:102EC00091E785451165EF70806469A80327C4FD0B
:102ED00085476318F700854537050200EF70806766
:102EE00051A00327C4FD89476318F70085453705BE
:102EF0000400EF702066BDA00327C4FD8D47631852
:102F0000F700854537050800EF70C064A1A80327C6
:102F1000C4FD91476318F700854537051000EF7031
:102F2000606389A00327C4FD95476318F7008545B2
:102F300013050004EF70006235A00327C4FD994714
:102F40006318F700854513050008EF70A06019A805
:102F50000327C4FD9D476317F7008545130500103F
:102F6000EF70405F232004FE232204FE232404FE8E
:102F7000232604FE832784FD2320F4FE231204FE6F
:102F8000231304FE231404FE231604FEB147231565
:102F9000F4FEED670327C4FD0A079387074BBA9732
:102FA0009C433E87930704FEBE853A85EF802063ED
:102FB000ED670327C4FD0A079387074BBA979C4325
:102FC00085453E85EF80F0040100B25022544561F2
:102FD0008280411106C622C4000883A7C18C054720
:102FE000638BE7006388070C0947638DE7000D4793
:102FF000638FE702E9A083A7818C1387170023A4BE
:10300000E18C75A883A7818C1387170023A4E18C1A
:1030100003A7818CA54763F1E70AB70700209387D0
:10302000C7049C4B1167D8CB23A4018C71A003A7C4
:10303000018D85476314F7081305F008EFD07F9FD3
:10304000AA87ADC31945EFF04FE2AA873E8783A751
:10305000818C1D8F9307600963F2E7061945EFF035
:10306000AFF083A7818CD3F717D05385F720EF30CB
:10307000F171ED6703A687C583A6C7C5EF2071363A
:10308000AA872E883E85C285EF301159AA871397EB
:1030900007014183B70700202390E734094723A89D
:1030A000E18C29A81945EFF04FDCAA873E8723A4BD
:1030B000E18C29A0010021A0010011A00100010064
:1030C000B240224441018280411106C622C4000858
:1030D00083A7C18C0947637CF7000D47639AE7001B
:1030E0001945EFF06FE8054723A8E18C11A0010016
:1030F0000100B240224441018280011106CE22CC5F
:103100000010232204FE83C7518D6381071409A890
:10311000930734FE0546BE851385819CEF30506DC4
:10312000930734FEBE851D45EFF03F8AAA87EDF375
:10313000034734FEA947631BF71099472322F4FE87
:10314000130744FE930784FE85463A86BE851385A1
:10315000819CEF408048930784FE138737000D461B
:10316000ED67938507C63A85EF40717BAA879DEB93
:1031700003A7C18D89476304F70C054723AEE18C93
:103180001385819CEF303039AA872322F4FE930700
:1031900044FE81463E86938541A61385819CEF407F
:1031A000C04371A8930784FE138737000D46ED676F
:1031B000938547C63A85EF409176AA879DEB03A792
:1031C000818D8947630DF706054723ACE18C138594
:1031D000819CEF305034AA872322F4FE930744FEEB
:1031E00081463E869385419E1385819CEF40E03E5B
:1031F000B9A0930784FE138737000D46ED679385CA
:1032000087C63A85EF40B171AA8795EB03A7018E77
:1032100089476306F702054723A0E18E1385819C49
:10322000EF30702FAA872322F4FE930744FE8146D5
:103230003E86938541AE1385819CEF40003A13850D
:10324000819CEF30B0080547238AE18C0100F240F1
:10325000624405618280011106CE22CC0010AA874B
:103260002E87A307F4FEBA872307F4FEB7070020D2
:103270009387C7049C4713070040D8CB0347E4FE5D
:103280008347F4FE3A86BE850945EFE01FD6B707AF
:1032900000209387C7049C471307004098CB010088
:1032A000F240624405618280797106D622D400180A
:1032B000AA87A30FF4FCA30704FEB7070020938797
:1032C000C7049C4713070040D8CB8347F4FD93E71E
:1032D00007F893F7F70FBE850945EFE0BFDAAA8735
:1032E000A307F4FEB70700209387C7049C47130782
:1032F000004098CB8347F4FE3E85B250225445618E
:103300008280011106CE22CC0010AA872324B4FEAD
:103310002322C4FEA307F4FEB70700209387C70447
:103320009C4713070040D8CB8347F4FE93E707F888
:1033300093F7F70F832644FE032684FEBE850945D6
:10334000EFE07FE1B70700209387C7049C4713078E
:10335000004098CB0100F24062440561828079719F
:1033600006D622D40018AA87AE863287A30FF4FCB3
:10337000B687230FF4FCBA87A30EF4FCA30704FE60
:10338000231604FE8347F4FD8607A30FF4FC814552
:103390005D45D1358347F4FDBE8555456D3D834779
:1033A000E4FDBE855945453D8347D4FDBE851305E3
:1033B000100255359305C0045145713D15A0835742
:1033C000C4FE138717002316E4FE1307F00F63767D
:1033D000F7008547A307F4FE21A80945EFC0DFECFD
:1033E00013052002D135AA87E207E187E3D907FC5C
:1033F0008347F4FE3E85B250225445618280797144
:1034000006D622D40018AA872E87A30FF4FCBA8709
:10341000230FF4FC231704FE8347F4FD8607A30F54
:10342000F4FC8347F4FD93E7170093F7F70FBE858D
:10343000554515358347E4FDBE855945293D8545EC
:103440005D45113D9305C0045145313531A8835781
:10345000E4FE138717002317E4FE1307F00F636ED3
:10346000F7000945EFC05FE413052002353DAA8748
:10347000858B93F7F70FE1DF11A0010009452D358A
:10348000AA873E85B250225445618280011106CE42
:1034900022CC0010AA872E87A307F4FEBA87230741
:1034A000F4FE8347F4FE8607A307F4FE8347F4FE89
:1034B00093E7170093F7F70FBE855545693B8347A0
:1034C000E4FEBE855945413B99455D456933930509
:1034D000C006514549330100F240624405618280D3
:1034E000011106CE22CC0010A30704FE230704FE20
:1034F000231604FE3DA08357C4FE1387170023162E
:10350000E4FE1307F00F6376F7008547A307F4FE88
:1035100039A83D45513BAA872307F4FE2945EFC052
:10352000BFD80347E4FE9307B006E316F7FC8347D2
:10353000F4FE3E85F240624405618280011106CEB0
:1035400022CC0010A30704FE230704FE231604FE6A
:1035500005A88357C4FE138717002316E4FE13073C
:10356000F00F6376F7008547A307F4FE05A0B54585
:1035700035457135AA872307F4FE2945EFC0DFD210
:103580000347E4FE9307F00FE315F7FC8347F4FECF
:103590003E85F240624405618280011106CE22CC54
:1035A0000010930784FE1946BE8513052002913B47
:1035B000834794FEA207139707014187834784FE40
:1035C000C207C187D98F1397070141872392E18EE4
:1035D0008347B4FEA2071397070141878347A4FEE0
:1035E000C207C187D98F1397070141872393E18EC3
:1035F0008347D4FEA2071397070141878347C4FE80
:10360000C207C187D98F1397070141872394E18EA1
:103610000100F240624405618280011106CE22CC95
:103620000010A30704FE2945EFC01FC81308F00FC0
:10363000896793874702096713075702896693864C
:103640003602379698001306066881450945EFE073
:103650001FC0C146014685451305A004EFD08FC1A8
:1036600081450545EFF03FBF85454945EFF0BFBEB9
:103670000945EFC07FC381450545EFF0DFBD8D35BE
:10368000AA8785C393069017ED67138607D5ED6764
:10369000938507DA0145EF2030778547A307F4FECD
:1036A00099A28D453545EFF01FBB9305C0034145F9
:1036B000EFF07FBAB70700206D67872787DE27A066
:1036C000F70601000347F4FE85476309F7109305E9
:1036D000C0054545EFF03FB8B707002093870706C0
:1036E0006D678727C7DEDCE301000347F4FE8547EB
:1036F0006308F70E930540044945EFF0DFB58945AF
:103700004D45EFF05FB581455145EFF0DFB48145A0
:103710005545EFF05FB481455945EFF0DFB385457E
:103720006145EFF05FB3930500040545EFF0BFB2CC
:10373000930500085145EFF01FB20945EFC0DFB611
:1037400081455145EFF03FB10945EFC0FFB5130684
:103750000008A9453545EFF09FC00945EFC0DFB42B
:103760000146A9453545EFF09FBF0945EFC0DFB3DE
:10377000F133AA8785C39306C01EED67138607D56C
:10378000ED67938587DC0145EF2010688547A30727
:10379000F4FE91A86546A5453545EFF05FBCB70737
:1037A0000020938707066D67872707DF9CE70100E6
:1037B0000347F4FE85476307F7020546AD453545E7
:1037C000EFF0FFB981453545EFF05FCC8145054508
:1037D000EFF07FA85145EFC03FAD31A0010021A01F
:1037E000010011A001008347F4FE3E85F2406244CF
:1037F00005618280011122CE0010AA87A307F4FE82
:103800008346F4FEB727014093870780DC4713F710
:1038100007F0B727014093870780558FD8C701006D
:10382000724405618280011106CE22CC0010AA8765
:10383000A307F4FE83A7C18E6391070E83A7C181FE
:10384000BD8B0547B317F70093960701C18283A785
:10385000C18113D75700B70700200A079387C70411
:10386000BA979C43368798CB83A7C181BD8B054708
:10387000B317F70093960701C18283A7C18113D7BD
:103880005700B70700200A079387C704BA979C43DD
:103890003687D8CBB70700209387C704DC471307C8
:1038A0000008D8CB8347F4FEBE850545EFE00FD670
:1038B000B70700209387C704DC471307000898CB9D
:1038C00083A7C181BD8B0547B317F7009396070106
:1038D000C18283A7C18113D75700B70700200A0709
:1038E0009387C704BA979C43368798CB83A7C18137
:1038F000BD8B0547B317F70093960701C18283A7D5
:10390000C18113D75700B70700200A079387C70460
:10391000BA979C433687D8CB75A083A7C181BD8B4E
:103920000547B317F70093960701C18283A7C181AA
:1039300013D75700B70700200A079387C704BA9721
:103940009C433687D8CBB70700209387C704DC4356
:1039500013070008D8CBB70700209387C704DC43C0
:10396000096798CBB70700209387C704DC4321671A
:10397000D8CB8347F4FE3E85B53DB707002093873B
:10398000C704DC43216798CB83A7C181BD8B054762
:10399000B317F70093960701C18283A7C18113D79C
:1039A0005700B70700200A079387C704BA979C43BC
:1039B000368798CBB70700209387C704DC431307EB
:1039C000000898CB0100F240624405618280011139
:1039D00006CE22CC0010AA87A307F4FE83A7C18ECF
:1039E00081EB8347F4FEBE850545EFE02FC279A049
:1039F00083A7C181BD8B0547B317F70093960701D5
:103A0000C18283A7C18113D75700B70700200A07D7
:103A10009387C704BA979C433687D8CBB707002053
:103A20009387C704DC43096798CBB70700209387C7
:103A3000C704DC432167D8CB8347F4FE3E85EFF013
:103A40007FDBB70700209387C704DC43216798CB4F
:103A500083A7C181BD8B0547B317F7009396070174
:103A6000C18283A7C18113D75700B70700200A0777
:103A70009387C704BA979C43368798CB0100F240DE
:103A8000624405618280011106CE22CC0010AA8713
:103A90002317F4FE83A7C18E81EB8357E4FEBE8516
:103AA0000545EFE00FBCC9A083A7C181BD8B0547C9
:103AB000B317F70093960701C18283A7C18113D77B
:103AC0005700B70700200A079387C704BA979C439B
:103AD0003687D8CBB70700209387C704DC43096734
:103AE00098CBB70700209387C704DC432167D8CB66
:103AF0008357E4FEA183C207C18393F7F70F3E8586
:103B0000EFF05FCFB70700209387C704DC4321673E
:103B100098CBB70700209387C704DC432167D8CB35
:103B20008357E4FE93F7F70F3E85EFF0BFCCB7075E
:103B300000209387C704DC43216798CB83A7C1810A
:103B4000BD8B0547B317F70093960701C18283A782
:103B5000C18113D75700B70700200A079387C7040E
:103B6000BA979C43368798CB0100F24062440561C6
:103B70008280011106CE22CC00102326A4FE23242D
:103B8000B4FE83A7C18E89EB032684FE8325C4FE81
:103B90000545EFE04FB7D5A083A7C181BD8B054791
:103BA000B317F70093960701C18283A7C18113D78A
:103BB0005700B70700200A079387C704BA979C43AA
:103BC0003687D8CBB70700209387C704DC43096743
:103BD00098CBBDA0B70700209387C704DC432167BB
:103BE000D8CB8327C4FE83D70700A183C207C18334
:103BF00093F7F70F3E85EFF0FFBFB70700209387DD
:103C0000C704DC43216798CBB70700209387C7041C
:103C1000DC432167D8CB8327C4FE83D7070093F703
:103C2000F70F3E85EFF01FBDB70700209387C7044D
:103C3000DC43216798CB8327C4FE89072326F4FE43
:103C4000832784FE1387F7FF2324E4FEC1F783A7AD
:103C5000C181BD8B0547B317F70093960701C18259
:103C600083A7C18113D75700B70700200A0793879E
:103C7000C704BA979C43368798CB0100F240624450
:103C800005618280011106CE22CC0010AA873687FA
:103C90002317F4FEAE872316F4FEB2872315F4FE35
:103CA000BA872314F4FE83D701810357E4FEB337A8
:103CB000F70093F7F70F3E8713061015ED6793850E
:103CC00087DF3A85EF20D00D83D721810357C4FECB
:103CD000B337F70093F7F70F3E8713062015ED670C
:103CE000938587DF3A85EF20B00B83D70181035797
:103CF000A4FEB337F70093F7F70F3E87130630158E
:103D0000ED67938587DF3A85EF20900983D721817E
:103D1000035784FEB337F70093F7F70F3E87130678
:103D20004015ED67938587DF3A85EF20700713050F
:103D3000A002EFF05FAF8357E4FE3E85EFF0BFD403
:103D40008357A4FE3E85EFF01FD41305B002EFF0B9
:103D50009FAD8357C4FE3E85EFF0FFD2835784FEAC
:103D60003E85EFF05FD21305C002EFF0DFAB01003C
:103D7000F240624405618280797106D622D400182F
:103D80009307C4FD3E85EF20100D8547231EF4FCEC
:103D900083D70181231FF4FC83D721812310F4FEF4
:103DA00083A7C1800547638AE70099EF99472301FC
:103DB000F4FEA147A301F4FE09A8A1472301F4FEE4
:103DC000C147A301F4FE11A00100B747000093878B
:103DD00027422324F4FEB7470000938767DF23269A
:103DE000F4FE9307C4FD3E85EF20900C0100B25015
:103DF000225445618280011106CE22CC26CA0010D1
:103E00000A85AA8403D50181AA88FD18232414FFFA
:103E10002A8381439358C3011397430033E7E80093
:103E200093164300AA85014613D7C501131846000F
:103E30003368070193974500AA878607BD079183DA
:103E400092073301F1408A878507858386072322FD
:103E5000F4FE231604FE231704FE83A7C18E9DE7FC
:103E600083A7C181BD8B0547B317F7009396070160
:103E7000C18283A7C18113D75700B70700200A0763
:103E80009387C704BA979C433687D8CB83D70181E1
:103E9000FD1713970701418383D72181FD17C207BF
:103EA000C183BE863A8681450145EFF0BFDD23160A
:103EB00004FE15A08357C4FE37070020035747347C
:103EC000832644FE8607B6972390E7008357C4FEF7
:103ED00085072316F4FE83D701810357C4FEE36BE5
:103EE000F7FC231704FE31A8032744FE83D7018182
:103EF000BE853A85EFF0FFC78357E4FE8507231799
:103F0000F4FE83D721810357E4FEE36FF7FC83A718
:103F1000C18E9DE783A7C181BD8B0547B317F7000D
:103F200093960701C18283A7C18113D75700B707B2
:103F300000200A079387C704BA979C43368798CB1B
:103F400026810100130104FEF2406244D24405615F
:103F50008280011122CE00102326A4FE0327C4FE76
:103F600023A4E18083A7818005476376F7000D478E
:103F70006365F70211A81307000F2398E180130768
:103F800000142399E18011A8130700142398E180FD
:103F90001307000F2399E1800100010072440561BD
:103FA0008280011122CE0010AA872E872317F4FEEB
:103FB000BA872316F4FEB70700200357E4FE2391C7
:103FC000E734B70700200357C4FE2392E73401000B
:103FD000724405618280011106CE22CC0010AA87AE
:103FE000AE8632872317F4FEB6872316F4FEBA870F
:103FF0002315F4FE83D701810357E4FEB337F7009E
:1040000093F7F70F3E8713068020ED67938587DFD0
:104010003A85EF20E05883D721810357C4FEB33798
:10402000F70093F7F70F3E8713069020ED6793850F
:1040300087DF3A85EF20C05683A7C18E9DE783A70F
:10404000C181BD8B0547B317F70093960701C18265
:1040500083A7C18113D75700B70700200A079387AA
:10406000C704BA979C433687D8CB8356C4FE035601
:10407000E4FE0357C4FE8357E4FEBA853E85EFF0A5
:104080007FC08357A4FE3E85EFF0FF9F83A7C18EBC
:104090009DE783A7C181BD8B0547B317F7009396B2
:1040A0000701C18283A7C18113D75700B70700203A
:1040B0000A079387C704BA979C43368798CB0100B9
:1040C000F240624405618280697123261112232423
:1040D0008112001AAA87AE863287231FF4ECB687B6
:1040E000231EF4ECBA87A30DF4EC83D701810357A8
:1040F000E4EDB337F70093F7F70F3E87130650262A
:10410000ED67938587DF3A85EF20804983D721814A
:104110000357C4EDB337F70093F7F70F3E87130645
:104120006026ED67938587DF3A85EF206047A30718
:1041300004FE230704FE83A7C18E9DE783A7C181E8
:10414000BD8B0547B317F70093960701C18283A77C
:10415000C18113D75700B70700200A079387C70408
:10416000BA979C433687D8CB83A7C1800547638D18
:10417000E70E639707268357E4ED9507139607012B
:1041800041828357C4ED9D0793960701C18203576F
:10419000C4ED8357E4EDBA853E85EFF0BFAEA307CB
:1041A00004FE75A08307B4ED138707FE8346F4FE73
:1041B0007166BA878607BA978607130706ADBA975E
:1041C000B69783C70700A306F4FE230704FEB5A035
:1041D0008347D4FE858B8DC78346F4FE0347E4FEF8
:1041E000BA878607BA978607B6973707002003571E
:1041F00027348607930604FFB697239CE7EE25A095
:104200008346F4FE0347E4FEBA878607BA9786071B
:10421000B69737070020035747348607930604FFF5
:10422000B697239CE7EE8347D4FE8583A306F4FE6E
:104230008347E4FE85072307F4FE0347E4FE9D471A
:10424000E3F8E7F88347F4FE8507A307F4FE034786
:10425000F4FE9547E3F8E7F4930784EE9305000333
:104260003E85EFF01F91B5AA8357E4ED9D071396A5
:10427000070141828357C4EDBD0793960701C182B0
:104280000357C4ED8357E4EDBA853E85EFF09F9F59
:10429000A30704FE0DAA8307B4ED938607FE8347A8
:1042A000F4FE6D6792061307074E3697BA9783C7D9
:1042B00007002306F4FE8307B4ED938607FE8347C9
:1042C000F4FEA1076D6792061307074E3697BA975B
:1042D00083C70700A305F4FE230704FE85A08347D8
:1042E000C4FE858B95C30347F4FE8347E4FE8E0727
:1042F000BA9737070020035727348607930604FF31
:10430000B697239CE7EE0DA00347F4FE8347E4FE37
:104310008E07BA973707002003574734860793065E
:1043200004FFB697239CE7EE8347C4FE85832306EC
:10433000F4FE8347E4FE85072307F4FE0347E4FE0B
:104340009D47E3FEE7F8230704FEA5A08347B4FEDC
:10435000858B85C70347F4FE8347E4FE8E07BA9733
:1043600093870704370700200357273486079306EF
:1043700004FFB697239CE7EE1DA00347F4FE834796
:10438000E4FE8E07BA979387070437070020035788
:1043900047348607930604FFB697239CE7EE8347CE
:1043A000B4FE8583A305F4FE8347E4FE8507230757
:1043B000F4FE0347E4FE9D47E3FAE7F88347F4FE83
:1043C0008507A307F4FE0347F4FE9D47E3F5E7ECFA
:1043D000930784EE930500083E85EFF08FF911A056
:1043E000010083A7C18E9DE783A7C181BD8B0547CF
:1043F000B317F70093960701C18283A7C18113D732
:104400005700B70700200A079387C704BA979C4351
:10441000368798CB01008320C11203248112556195
:104420008280797106D622D40018AA872E87232C81
:10443000C4FC231FF4FCBA87231EF4FC83D701813C
:104440000357E4FDB337F70093F7F70F3E871306E2
:10445000202CED67938587DF3A85EF20601483D7A2
:1044600021810357C4FDB337F70093F7F70F3E8759
:104470001306302CED67938587DF3A85EF204012D5
:10448000231704FE71A083A7C18005476381E70459
:10449000B5EB0357E4FEBA878607BA9786071397EA
:1044A000070141838357E4FDBA9793960701C182C0
:1044B0008357E4FE032784FDBA97038707008357D9
:1044C000C4FD3A86BE853685EFF01FC02DA8835700
:1044D000E4FE8E071397070141838357E4FDBA97E3
:1044E00093960701C1828357E4FE032784FDBA97A0
:1044F000038707008357C4FD3A86BE853685EFF0F3
:10450000BFBC11A001008357E4FE85072317F4FE0A
:104510008357E4FE032784FDBA9783870700A5F736
:104520000100B250225445618280397106DE22DCDE
:104530008000AA872324C4FC36872317F4FCAE87A7
:104540002316F4FCBA87A303F4FC83D70181035735
:10455000E4FCB337F70093F7F70F3E87130670308C
:10456000ED67938587DF3A85EF20800383D721812C
:104570000357C4FCB337F70093F7F70F3E871306D2
:104580008030ED67938587DF3A85EF2060018347B0
:1045900074FCB337F00093F7F70F3E8713069030A3
:1045A000ED67938587DF3A85EF10907F834774FC32
:1045B00093B7B70093F7F70F3E871306A030ED6768
:1045C000938587DF3A85EF10B07D832784FC23260F
:1045D000F4FE85472324F4FE9307C4FD314681454C
:1045E0003E85EFB0FFC1034774FC9307C4FD3A86D4
:1045F000930500023E85EFB0BFC0034774FCA5479A
:1046000063EBE70231A8032784FEBA878A07BA97CB
:1046100086072324F4FE834774FCFD17A303F4FCF0
:10462000834774FCEDF3832784FE0327C4FEB3772E
:10463000F7022326F4FE9307C4FD8325C4FE3E85BE
:10464000EF3060789306C4FD0357C4FC8357E4FC45
:104650003686BA853E85EFF0DFDC0100F250625409
:10466000216182805D7186C6A2C4A6C2800823280B
:10467000C4FA232AD4FABA863E87AA87231FF4FAFB
:10468000AE87231EF4FAB687A30DF4FABA87230D7A
:10469000F4FA83D701810357E4FBB337F70093F7AC
:1046A000F70F3E8713061033ED67938587DF3A8552
:1046B000EF10106F83D721810357C4FBB337F70086
:1046C00093F7F70F3E8713062033ED67938587DF57
:1046D0003A85EF10F06C8347B4FBB337F00093F7E3
:1046E000F70F3E8713063033ED67938587DF3A85F2
:1046F000EF10106B8347B4FB93B7970093F7F70F56
:104700003E8713064033ED67938587DF3A85EF10C8
:1047100030698347A4FBB337F00093F7F70F3E8768
:1047200013065033ED67938587DF3A85EF105067A6
:104730008347A4FB93B7770093F7F70F3E871306E1
:104740006033ED67938587DF3A85EF1070658327C7
:1047500004FB032844FB2320F4FE232204FFED671F
:1047600003A8C7E483A787E42324F4FE232604FFD9
:104770009307C4FC454681453E85EFB07FA80347BB
:10478000B4FB8347A4FBBA9789073E879307C4FC11
:104790003A86930500023E85EFB09FA63DA0ED67E7
:1047A00003A607E583A647E5032584FE8325C4FE0B
:1047B000EF102143AA872E882324F4FE232604FF2A
:1047C0008347B4FBFD17A30DF4FA8347B4FBE1FB69
:1047D000032504FE832544FEEF208156AA84032589
:1047E00084FE8325C4FEEF20A155AA87B3C7F40237
:1047F0003E85EF20416CAA872E88032684FE8326FF
:10480000C4FE3E85C285EF10C13DAA872E883E8634
:10481000C286032504FE832544FEEF10F121AA87FA
:104820002E882320F4FE232204FF0347A4FB9307D2
:10483000C4FCBA86832504FE032644FE3E85EF3081
:1048400000669306C4FC0357C4FB8357E4FB36861B
:10485000BA853E85EFF0FFBC0100B6402644964481
:1048600061618280597186D6A2D4A6D2CAD0CECE3A
:10487000D2CCD6CADAC8DEC6E2C4E6C280182A8E16
:104880002E832324C4FA3685BA853E86C28646879F
:10489000F2872317F4FA9A872316F4FAAA872313C8
:1048A000F4FAAE872312F4FAB2872311F4FAB6872A
:1048B0002310F4FABA87A30FF4F88A87BE8483D74B
:1048C00001810357E4FAB337F70093F7F70F3E87F8
:1048D00013069039ED67938587DF3A85EF10504CCA
:1048E00083D721810357C4FAB337F70093F7F70F43
:1048F0003E871306A039ED67938587DF3A85EF1071
:10490000304A832784FAB337F00093F7F70F3E87D6
:104910001306B039ED67938587DF3A85EF1050486D
:10492000232404FC232604FC231304FC231204FC8C
:10493000835724FA3E877D172320E4FC3E8C814C6C
:104940001357CC01939A4C00B36A5701131A4C00C9
:104950003E8B814B1357CB0193994B00B3693701C1
:1049600013194B008607BD07918392073301F1406D
:104970008A87850785838607232EF4FA83A7C18E4D
:104980009DE783A7C181BD8B0547B317F7009396B9
:104990000701C18283A7C18113D75700B707002041
:1049A0000A079387C704BA979C433687D8CB035727
:1049B000E4FA835724FABA97C207C183FD17139606
:1049C000070141820357C4FA835704FABA97C20712
:1049D000C183FD1793960701C1820357C4FA835719
:1049E000E4FABA853E85EFF0EFA9232604FC15A270
:1049F000035744FA8327C4FC3307F702835704FAAA
:104A00003357F702835764FAB307F702032784FA90
:104A1000BA97232CF4FA232404FCC9A8035764FA98
:104A2000832784FC3307F702835724FAB357F7022E
:104A3000032784FBBA9783C707002312F4FC83473C
:104A4000F4F9B5E7835744FC8D83C207C183AE07F1
:104A50002313F4FC835744FC8983C207C183960760
:104A6000C207C18793F7077E139707014187831712
:104A700064FCD98FC207C1872313F4FC835744FC1D
:104A80008D83C207C183FD8B139707014183835731
:104A900064FCD98F2313F4FC0327C4FB832784FC15
:104AA0008607BA97035764FC2390E7001DA8834745
:104AB000F4F9C207C183035744FC637BF700032763
:104AC000C4FB832784FC8607BA972390070011A8AC
:104AD0000327C4FB832784FC8607BA977D5723905E
:104AE000E700832784FC85072324F4FC835724FAFA
:104AF000032784FCE364F7F28327C4FB035724FAFB
:104B0000BA853E85EFF0EF868327C4FC8507232610
:104B1000F4FC835704FA0327C4FCE36BF7EC83A788
:104B2000C18E9DE783A7C181BD8B0547B317F700F1
:104B300093960701C18283A7C18113D75700B70796
:104B400000200A079387C704BA979C43368798CBFF
:104B500026810100130104F9B650265496540659D3
:104B6000F649664AD64A464BB64B264C964C65618A
:104B70008280797106D622D40018232EA4FC8327C4
:104B8000C4FDC1E323A6018E1307700223AAE180AE
:104B90001307000623ACE1801307400623AEE18033
:104BA0001308F00FC167F91705671307F702856649
:104BB0009386D60237A64A0413060620814505458A
:104BC000EFD0EFE8C1460146854513057006EFB00A
:104BD0007FEA83A74181C146014685453E85EFB006
:104BE0007FE9C1460146854513054006EFB09FE8C1
:104BF00083A78181C146054685453E85EFB09FE785
:104C000045A8054723A6E18E1307700623AAE18075
:104C10001307000623ACE1801307400623AEE180B2
:104C2000C146054685451305D002EFB0BFE4C14635
:104C3000054685451305F002EFB0DFE3C1460546A2
:104C4000854513057002EFB0FFE2C1460546854574
:104C500013057006EFB01FE2C146054685451305F2
:104C60004006EFB03FE1C146054685451305000605
:104C7000EFB05FE0A30704FE930700F82307F4FEFC
:104C8000A30704FE0DA00347E4FE8347F4FEBA9792
:104C9000C146014685453E85EFB0DFDD8347F4FE22
:104CA0008507A307F4FE0347F4FE9D47E3FDE7FCF9
:104CB00083A781803E85EFF0CFA9B707002003D7F7
:104CC0002734B707002083D74734BE853A85EFF0F5
:104CD0004FAD83A78181BD8B0547B317F70093962E
:104CE0000701C18283A7818113D75700B70700202E
:104CF0000A079387C704BA979C43368798CB83A744
:104D00004181BD8B0547B317F70093960701C18218
:104D100083A7418113D75700B70700200A0793875D
:104D2000C704BA979C433687D8CB1545EFB0CFD789
:104D300083A74181BD8B0547B317F7009396070101
:104D4000C18283A7418113D75700B70700200A0704
:104D50009387C704BA979C43368798CB130580077F
:104D6000EFB08FD483A7C18E9DE783A7C181BD8B90
:104D70000547B317F70093960701C18283A7C18146
:104D800013D75700B70700200A079387C704BA97BD
:104D90009C433687D8CB4545EFE0FFA81305800735
:104DA000EFB08FD013056003EFE0FFA783A78180EA
:104DB0000547638EE70081CB0947638FE7000D4706
:104DC0006381E70225A00145EFE07FC005A0130540
:104DD000000CEFE0DFBF19A813050007EFE03FBFAD
:104DE00031A01305000AEFE09FBE01001305A003E8
:104DF000EFE07FA31545EFE09FBD1305200BEFE02B
:104E00009FA23145EFE0BFBC3145EFE05FBC0145FB
:104E1000EFE0FFBB13053003EFE07FBB130530036A
:104E2000EFE0FFBA1305700BEFE0FF9F130550038F
:104E3000EFE0FFB91305B00BEFE0FF9E1305900202
:104E4000EFE0FFB81305200CEFE0FF9D0545EFE014
:104E50001FB81305300CEFE01F9D6545EFE03FB72D
:104E60001305400CEFE03F9C13050002EFE03FB656
:104E70001305500CEFE03F9B6945EFE05FB513056C
:104E8000600CEFE05F9A7D45EFE07FB41305000D05
:104E9000EFE07F991305400AEFE07FB31305100A96
:104EA000EFE0FFB21305000EEFE0FF971305000DD2
:104EB000EFE0FFB12145EFE09FB13945EFE03FB1B1
:104EC0002545EFE0DFB02545EFE07FB01545EFE089
:104ED0001FB013051003EFE09FAF13053003EFE0A1
:104EE0001FAF13058004EFE09FAE5D45EFE03FAEDE
:104EF0005145EFE0DFAD5545EFE07FAD1305100301
:104F0000EFE0FFAC13054003EFE07FAC1305100E9C
:104F1000EFE07F911305000DEFE07FAB2145EFE05F
:104F20001FAB3945EFE0BFAA2545EFE05FAA254555
:104F3000EFE0FFA95545EFE09FA913051003EFE04F
:104F40001FA913053003EFE09FA813058004EFE0CD
:104F50001FA85D45EFE0BFA75145EFE05FA75545AE
:104F6000EFE0FFA613051003EFE07FA61305400353
:104F7000EFE0FFA513051002EFE0FF8A1305900292
:104F8000EFE07F8A83A7C18E9DE783A7C181BD8B98
:104F90000547B317F70093960701C18283A7C18124
:104FA00013D75700B70700200A079387C704BA979B
:104FB0009C43368798CBEFE01FE4EFE0FFDB010076
:104FC000B250225445618280011106CE22CC0010DD
:104FD000A30704FEA30704FEE9A00347F4FEED6760
:104FE0000A079387074DBA979C433E85EFB07FA48D
:104FF000AA873E8785476309F7048347F4FE9396A3
:105000002700138741B63697184305079396270064
:10501000938741B6B69798C383A7018F1307803E45
:105020003357F7028346F4FE8A06938741B6B69754
:105030009C4363E3E7060347F4FE0A07938741B7FF
:10504000BA97094798C389A80347F4FE0A079387CC
:1050500041B7BA97984389476308F70283A7018F3E
:1050600029473357F7028346F4FE8A06938741B6F1
:10507000B6979C4363EAE7000347F4FE0A07938769
:1050800041B7BA97054798C30347F4FE0A079387C9
:1050900041B6BA9723A007008347F4FE8507A3070C
:1050A000F4FE0347F4FE8D47E3F9E7F20100F24016
:1050B000624405618280011122CE00102326A4FEE5
:1050C0000327C4FE0A07938741B7BA979C433E85DE
:1050D000724405618280011122CE00102326A4FEB5
:1050E0000327C4FE0A07938741B7BA9723A0070096
:1050F0000100724405618280797106D622D40018BD
:10510000232EA4FC8327C4FDB337F00093F7F70FD9
:105110003E871306C008ED67938587E53A85EF1053
:105120002048A30704FEA30704FE2DA80347F4FEAE
:10513000ED670A079387074DBA979C43930680044F
:10514000054681453E85EFB0FF920347F4FE0A070E
:10515000938741B7BA9723A007008347F4FE8507DA
:10516000A307F4FE0347F4FE8D47E3F1E7FC0327B2
:10517000C4FD23A8E18E0100B25022544561828013
:10518000397106DE22DC80002326A4FC8547A307B4
:10519000F4FE231304FE231604FE232404FE232E10
:1051A00004FC83D7C18F3E87930700236316F70063
:1051B000A5472324F4FE29A0A1472324F4FE0100DF
:1051C0008DA8930750FA2300F4FE832784FE8A07F4
:1051D0000327C4FCBA978397070093F7F70FA30040
:1051E000F4FE832784FE8A070327C4FCBA978397BB
:1051F00027002313F4FE835764FEA183C207C183F3
:1052000093F7F70F2301F4FE835764FE93F7F70F2C
:10521000A301F4FE930704FE1146BE851145EFD0AD
:105220004FE60945EFB04F88832784FEFD172324FE
:10523000F4FE032784FE9307E00FE3F4E7F883A767
:10524000818F3E85EF10302D2A87894763FFE70263
:105250008D47232EF4FC83A7818F1306C4FD13070B
:1052600004FE8146BA853E85EF202037034714FEB1
:105270009307F00F6308F700034724FE9307F00F2E
:105280006315F700A30704FE31A80545EFB0CF81F1
:105290008357C4FE138717002316E4FE1307700C10
:1052A000E37FF7F88347F4FE3E85F25062542161B4
:1052B0008280797106D622D40018232EA4FCA3077D
:1052C00004FE230704FE231504FE231604FE2320F8
:1052D00004FE83D7C18F3E87930700236316F70030
:1052E000A547A307F4FE29A0A147A307F4FE0100E8
:1052F0008347F4FEFD1793F7F70FA307F4FE11AAF7
:1053000003D7C18F9307F02263EDE7008307F4FE14
:105310008A070327C4FDBA9703970700A5476300D0
:10532000F70E930750FA2302F4FEC557A302F4FECA
:105330008307F4FE8A070327C4FDBA978397070003
:105340002315F4FE8357A4FEA183C207C18393F7FC
:10535000F70F2303F4FE8357A4FE93F7F70FA3037D
:10536000F4FE930744FE1146BE851145EFD06FD180
:10537000231604FE83A7818F3E85EF10D0192A875C
:10538000894763F7E7048D472320F4FE83A7818FC5
:10539000130604FE130744FE8146BA853E85EF20BE
:1053A000C023834754FEA20793960701C186834713
:1053B00064FE1397070141878307F4FE8A070326DB
:1053C000C4FDB297558F420741872391E70031A86A
:1053D0000545EFA07FED8357C4FE13871700231602
:1053E000E4FE1307700CE377F7F80357C4FE930746
:1053F000800C63F7E70085472307F4FE39A8010016
:105400008307F4FE93F7F70FFD1793F7F70FA30742
:10541000F4FE8307F4FEE3D507EE8347E4FE3E8502
:10542000B250225445618280011106CE22CC001078
:10543000232404FE8547A307F4FE231604FE23223B
:1054400004FE83A7818F3E85EF10F00CAA8791C7D9
:1054500083A7818F3E85EF1060679305F00F11459C
:10546000EFD0CFBC930750FA2304F4FEBD57A3043A
:10547000F4FE230504FEA30504FE930784FE1146F3
:10548000BE851145EFD0EFBF231604FE83A7818FA1
:105490003E85EF1050082A87894763F0E7048D475F
:1054A0002322F4FE83A7818F130644FE130784FE94
:1054B0008146BA853E85EF2040120347A4FE85470A
:1054C0006309F7000347A4FE89476304F700854793
:1054D00011A08147A307F4FE31A80545EFA0DFDC4A
:1054E0008357C4FE138717002316E4FE1307700CBE
:1054F000E37EF7F88347F4FE3E85F240624405619F
:105500008280011106CE22CC0010A30704FE93076F
:10551000F4FEBE851145EFD04FCB83A7818F85C7A1
:105520000347F4FE9307500A6317F70083A7818FA0
:105530003E85EF10A05983A7818F0347F4FEBA85FB
:105540003E85EF10F0040100F24062440561828064
:10555000411122C600080547238AE18E010032442A
:1055600041018280011106CE22CC0010231704FED7
:10557000231604FE232204FE930750FA2304F4FEAC
:10558000C557A304F4FE230504FEC957A305F4FE82
:10559000930784FE1146BE851145EFD08FAE83A7D9
:1055A000818F3E85EF1020772A87894763F0E704D3
:1055B0008D472322F4FE83A7818F130644FE130731
:1055C00084FE8146BA853E85EF202001834794FE04
:1055D000A2071397070141878347A4FEC207C1872B
:1055E000D98FC207C1872316F4FE31A80545EFA065
:1055F000BFCB8357E4FE138717002317E4FE13077E
:10560000700CE37EF7F88357C4FE3E85F240624497
:10561000056182805D7186C6A2C480088547A307A4
:10562000F4FE054723A0E1829307C4FD1307C004DD
:10563000930620061306401F81453E85EFC0EFF11B
:105640009307C4FD3E85EFE0103AAA87B5EFED67FA
:1056500003AE87F2138787F203234700138787F28D
:1056600083288700138787F20328C700138787F2F0
:10567000084B138787F24C4B138787F2104F138721
:1056800087F2544F138787F21853938787F2DC53BE
:10569000232AC4FB232C64FA232E14FB232004FDAD
:1056A0002322A4FC2324B4FC2326C4FC2328D4FCFA
:1056B000232AE4FC232CF4FC930744FB3E85EFE013
:1056C0007038AA87A307F4FE8347F4FE3E85B640F0
:1056D000264461618280597186D6A2D4801885479C
:1056E000A307F4FE230704FE232404FE23A0018263
:1056F00013050004EF10D151AA872324F4FE832759
:1057000084FE85E393067020ED67138647EAED6714
:10571000938587EF0145EF00306F8947A307F4FEBB
:1057200081A46545EF10D14EAA873E8723ACE18E58
:1057300083A7818F85E79306E020ED67138647EA0C
:10574000ED67938547F10145EF00106C032584FE5A
:10575000EF10B14C8947A307F4FE19A483A7818FEA
:1057600093060004032684FE81453E85EF202041F8
:1057700091679386270691671386C7048967938587
:1057800007581145EFD04FAA85451145EFD0AF9B83
:10579000EFF05FDDAA873E87239EE18E83D7C18F1E
:1057A00089CFEFF07FC8AA8789CB81451145EFD01B
:1057B0008F998D47A307F4FE65A2ED6703AE87F2CC
:1057C000138787F203234700138787F28328870014
:1057D000138787F20328C700138787F2084B1387C4
:1057E00087F24C4B138787F2104F138787F2544F81
:1057F000138787F21853938787F2DC532320C4FD65
:10580000232264FC232414FD232604FD2328A4FC66
:10581000232AB4FC232CC4FC232ED4FC2320E4FE36
:105820002322F4FEED6703A387F8138787F8832804
:105830004700138787F803288700138787F84847AE
:10584000138787F80C4B138787F8504B138787F81B
:10585000144F138787F8584F938787F89C53232E4C
:1058600064F8232014FB232204FB2324A4FA232618
:10587000B4FA2328C4FA232AD4FA232CE4FA232ED8
:10588000F4FA930704FC3E85EFF09F8FAA8785C743
:105890009306B024ED67138647EAED67938507F515
:1058A0000145EF00705681451145EFD0CF898547FE
:1058B000A307F4FE75A09307C4F93E85EFF07F9F20
:1058C000AA8785C793067025ED67138647EAED67BB
:1058D0009385C7F60145EF00305381451145EFD060
:1058E0008F868547A307F4FEA5A8230704FEA1A879
:1058F0008347E4FE85078A07130704FFBA970397D7
:1059000007FD8347E4FE8A07930604FFB697839753
:10591000C7FA631FF7028347E4FE85078A07130768
:1059200004FFBA97039727FD8347E4FE8A0793068F
:1059300004FFB6978397E7FA631CF7008347E4FEFA
:1059400085072307F4FE0347E4FEA147E3F2E7FAE5
:105950008347E4FE93B7870093F7F70FA307F4FE9E
:10596000032584FEEF10712B83A7818F3E85EF10F6
:10597000D12A23AC018E8347F4FE3E85B6502654CF
:1059800065618280797106D622D40018A30704FECF
:10599000B75700001386075581450D457928EFF06C
:1059A0007FC7AA8785C3B757000013860755B75727
:1059B0000000938527500D454920EFF0DFD1AA87DD
:1059C000A307F4FE8347F4FEB9E791473EC4954729
:1059D0003EC299473EC09308900213088002930785
:1059E00060021307B0049306900413068004A945CF
:1059F0002545EFA09F95930600059167138607AC98
:105A0000B70700209385476CB70700201385476CC4
:105A1000EFA0DFA329A0014681450145392883472E
:105A2000F4FE3E85B250225445618280411122C667
:105A300000080100324441018280011122CE001091
:105A40002326A4FE2324B4FE2322C4FE0327C4FE7F
:105A500023A0E190832744FE81C7832744FE29A029
:105A6000B76700009387C7A223A4F182832784FE2F
:105A700081C7832784FE29A0B76700009387C7A248
:105A800023A2F1820100724405618280011122CEBD
:105A900000102326A4FE2324B4FE0327C4FE23A261
:105AA000E190832784FE81C7832784FE29A0B767FE
:105AB00000009387C7A223A6F1820100724405610A
:105AC0008280797106D622D40018232EA4FC832765
:105AD000C4FDB337F00093F7F70F3E871306C008F5
